:020000040800F2
:1000000088070020AD0100086B340008A32F00080A
:100010006934000809150008753A0008000000005E
:10002000000000000000000000000000833600080F
:1000300051160008000000008136000885360008CF
:10004000C7010008C7010008C7010008C701000870
:10005000C7010008C7010008C7010008C701000860
:10006000C7010008C7010008C7010008C701000850
:10007000C7010008C7010008C7010008C701000840
:10008000C7010008C7010008C7010008C701000830
:10009000C7010008C7010008C7010008C701000820
:1000A000C7010008C7010008C7010008C701000810
:1000B000C7010008C7010008C7010008C701000800
:1000C000C7010008C7010008C7010008C7010008F0
:1000D000C7010008C7010008693A0008C701000805
:1000E000C7010008C7010008C701000800F002F8B6
:1000F00000F04DF80AA090E8000C82448344AAF175
:100100000107DA4501D100F042F8AFF2090EBAE872
:100110000F0013F0010F18BFFB1A43F0010318473B
:10012000084A0000284A0000103A24BF78C878C165
:10013000FAD8520724BF30C830C144BF04680C60ED
:10014000704700000023002400250026103A28BF35
:1001500078C1FBD8520728BF30C148BF0B60704739
:10016000662904F06A80752900F07E80732900F00A
:100170001E84002070471FB500F01EFC0400002004
:10018000002103F01BFEE0601FBD10B510BD00F0A4
:1001900013FD1146FFF7EFFF03F0C0FC00F031FD47
:1001A00003B4FFF7F2FF03BC00F074FD0948804779
:1001B00009480047FEE7FEE7FEE7FEE7FEE7FEE749
:1001C000FEE7FEE7FEE7FEE704480549054A064B61
:1001D0007047000001370008ED000008880100208A
:1001E0008807002088030020880300200FB41CB576
:1001F000074B06AA7B4469460090059800F0ADFBCA
:100200000020694600F0BCFB1CBC5DF814FB00003C
:100210008907000070B50C460546012A05D02878EC
:10022000800600D5EA69002302E0012305E05B1C9B
:10023000934202D2E05C0028F9D1A869E618C01AFE
:10024000A861286A184428622846AFF3008004E0B9
:10025000D5E9012114F8010B9047B442F8D32846A0
:10026000AFF3008070BD00002DE9F0410646002488
:1002700010687529314616A510D0AFF3008000280C
:1002800002DA404213A507E031688A0701D512A5BA
:1002900002E0490704D511A5012401E0AFF3008075
:1002A00000210A2206F1240709E0B0FBF2FCB0FBB2
:1002B000F2F302FB1C00303078541846491C002829
:1002C000F3D123462A463046BDE8F04100F0D8B8C5
:1002D000000000002D0000002B00000020000000A6
:1002E0002DE9F0474FF0000A89460446C0F820A0E7
:1002F0002046E1688847002876D0252806D0D4E932
:1003000001219047206A401C2062F1E7E168204605
:1003100000258847C4F81CA006460027C4F818A08A
:100320002A2E09D0304603F0F1FB38B304EB8708DE
:10033000303EC8F8186019E059F8041B204604EB59
:1003400087029161E1688847012F064618D1E0696C
:10035000002820DA25F020051DE0D8F8180000EB71
:10036000800006EB40003038C8F818002046E168ED
:100370008847064603F0CAFB0028EED1012F0AD0B9
:100380002E2E08D12046E16888477F1C0646022FA2
:1003900045F02005C4DBA069002803DA404245F09F
:1003A0000105A061E80701D025F01005B6B1A6F15E
:1003B0004100192802D8203645F400654A463146E6
:1003C000204625604D46FFF7CBFE58B1012806D0E8
:1003D000ED1D25F0070000F1080989E704E005F1AB
:1003E000040985E730468AE7206ABDE8F08710B542
:1003F000431C02E010F8011B71B18107FAD14FF0E4
:10040000013202C88C1A8C4314EAC211F9D0C01A06
:100410000A0603D0C01E10BDC01A10BD0A0401D0C8
:10042000801E10BD0902FCD0401E10BD4FF000021E
:1004300000B5134694469646203922BFA0E80C50DA
:10044000A0E80C50B1F12001BFF4F7AF090728BFB5
:10045000A0E80C5048BF0CC05DF804EB890028BF31
:1004600040F8042B08BF704748BF20F8022B11F05A
:10047000804F18BF00F8012B7047704770477047D6
:100480002DE9F0470D4699469246044600F12408AE
:100490000168880604D5E06921F01001216000E0C0
:1004A0000120A84201DD471B00E00027A1697A195D
:1004B00002EB0900081AA0612078C00602D4204689
:1004C000AFF30080002608E0D4E901211AF8060005
:1004D0009047206A401C761C20624E45F4DB207851
:1004E000C0060AD52046AFF3008006E0D4E901211A
:1004F00030209047206A401C2062381EA7F1010777
:10050000F4DC07E0D4E9012118F805009047206ADF
:10051000401C2062281EA5F10105F3DC2046AFF344
:1005200000802078000602D50220BDE8F087012077
:10053000FBE770472DE9FF4F0C461E464FF0FF3793
:100540008BB0D2E90001DDF860800A908A46C1F3E1
:100550000A5505B93D46002108464FF00000BAF1A2
:10056000000F00F4400005DA00EB80004FF440017A
:1005700001EA50004FEA9059B9F1010F00DDB94688
:100580000A9850EA4A000ED044F61050A5F2FF3502
:1005900045432F14B8F1000F1ED07542291E1EDDF1
:1005A000C9F100021CE0B8F1010F4FF0000001D0CA
:1005B000302103E0F24305E02154401CB042FBDB54
:1005C00030460022002121540B99C1F80880C1E96E
:1005D00000200FB0BDE8F08FBD1B6D1CDEE74A4662
:1005E00000DA694206A800F071FA06AB93E807004A
:1005F00003AB83E8070050460A9900F052FB8DE8F0
:100600000700A0F500501F3800900398002D0ADD68
:1006100042F21F014A460844002303A9039068469A
:1006200000F0BBFD09E0A0F500504A461F3800234A
:1006300003A90390684600F0C5FD8DE8070000049B
:10064000000C03D04FF0FF30410800E01046B8F135
:10065000000F03D00022009215461EE0751E05D43F
:1006600000F0AEF9303262556D1EF9D5B346012265
:10067000084302D000227F1C04E02078302801D1FA
:1006800000227F1E002A099784D01DE0112D07DA71
:1006900000F096F9303262556D1C50EA0102F5D136
:1006A000084302D00098C8B10EE00021681E05E0A2
:1006B000235C625C63542254401E491C8142F7DB78
:1006C000AB46A81B401E0990002004F80B000B98B5
:1006D000099AC0F80880C0E9002B7AE711264FF08C
:1006E000000857E72DE9F04F88460446D21D22F056
:1006F000070191B0D1E90001CDE90A0103F0E2F967
:1007000002460B98C00F01D02D2007E0206881071A
:1007100001D52B2002E0202101EAC000032A099024
:1007200001D0072A05DB03464146204600F08EF93A
:100730000BE12078800601D5E06900E00620B8F1E1
:10074000650F814606D0B8F1660F18D0B8F1670F73
:1007500070D131E00020B9F1110F009001DB1123BD
:1007600001E009F101030AAA01A90CA8FFF7E2FEC2
:10077000DDE90C70002609F10105834647E0012000
:100780004B4600904FF000470AAA01A90CA8FFF7BA
:10079000D1FEDDE90DB00C995D46002610B909F1D6
:1007A00001000D18B9EB050003D4C0F1FF3609F1C3
:1007B0000105A5EB09002BE0B9F1010F01DA4FF0BB
:1007C00001090020B9F1110F0090484601DD112305
:1007D00000E003460AAA01A90CA8FFF7ABFEDDE979
:1007E0000C704D4600268346207800070AD4AB459E
:1007F00000DA5D4601A8012D04DD411911F8011C44
:10080000302907D04F4502DA17F1040F04DA01202E
:1008100082460FE06D1EEEE7002F02DCED1B3E442A
:1008200003E0781CA84200DD7D1CB81B00F1010A22
:100830004FF000472078000703D4AA4501DB4FF0B2
:10084000FF3A0021B7F1004F0DF143088DF8431036
:1008500024D002202B23002F01DA7F422D230A21EE
:10086000021EA0F1010000DC5FB197FBF1FC97FBD9
:10087000F1F201FB1C7C17460CF1300C08F801CD9D
:10088000EEE7A8F1010003702188090501D5452193
:1008900000E06521A0F1010800F8011C09980FA9EA
:1008A000A1EB0807FF1D00B10120411901EBEA701F
:1008B000A1693844081A401EA0612078C00602D4FD
:1008C0002046AFF30080099828B1D4E90121904770
:1008D000206A401C20622078C00622D52046AFF353
:1008E00000801EE0002E04DBB34502DD01A8805D20
:1008F00000E03020D4E901219047206A401C2062AA
:10090000761CAAF101005FEA000A0AD100F054F84F
:10091000C0680168405CD4E901219047206A401C0E
:100920002062281EA5F10105DCDC07E0D4E90121E5
:1009300018F8010B9047206A401C2062381EA7F16E
:100940000107F3DC2046AFF30080032011B041E63D
:1009500001694A1C02610878704700B58FB0CDE983
:1009600001310021059105497944CDE90310114673
:100970006846FFF7B5FC0FB000BD0000E5FFFFFFC4
:100980000A6802F8010B0A60704710B5436913B199
:10099000AFF3008001E0FFF73DFC012010BD1278AD
:1009A00000F124010A7000224A700122EDE711686B
:1009B0004FF0FF32E9E7000000487047480100208F
:1009C00030B5B0F10A024FEA900E71F100034EEA21
:1009D000817EB0EB0E0061EB91014FEA101E4EEAF2
:1009E000017E10EB0E0041EB11114FEA102E4EEA82
:1009F000016E10EB0E0041EB11214FEA104E4EEA52
:100A0000014E10EB0E0041EB1141401841F1000185
:100A10004FEAD00040EA41704FEAD10110EB800567
:100A20004FEA810444EA907444EB01046D1944EBED
:100A30000404521BA3414FF0000348BF0A3200D503
:100A400030BD401C41F1000130BD00002DE9F041F6
:100A50001F46044603260168072A01F4006004DBF0
:100A600008B116A505E016A503E008B115A500E03C
:100A700015A521F010002060A069C01EA0610FB173
:100A8000401EA0612046AFF300804FB1D4E90121A0
:100A900038469047206A401C2062C01C206206E055
:100AA000206AFAE7D4E9012115F8010B9047761E78
:100AB000F8D22046AFF30080BDE8F0814E414E00F1
:100AC0006E616E00494E4600696E66002DE9F04782
:100AD000814616468AB0354878440DC88DE80D0029
:100AE00032487844801C03AC0DC884E80D0041F600
:100AF0009B300844372190FBF1F290FBF1F5A5F112
:100B0000800501FB12041B3C02D56442012000E079
:100B10000020DFF898A080460027FA44AAF1BE0A18
:100B20000EE0E0070AD03246684607EB4701012392
:100B30000AEB810100F046FB8DE8070064107F1C82
:100B4000002CEED1194F7F44AE3F19E0E80715D0D5
:100B500007EB04100DF1180A90E80E008AE80E0069
:100B6000C068F04201D1981908903246012306A9C5
:100B700003A800F027FB03AB83E807006D10641C9B
:100B8000002DE3D14FF0010332466946B8F1000F62
:100B900003A802D000F001FB01E000F013FBC9E95B
:100BA0000001C9F808200AB0BDE8F0873440000011
:100BB00000487047280100207546FFF7F9FFAE4650
:100BC00005006946534620F00700854618B020B559
:100BD000FFF7FAFABDE820404FF000064FF000079B
:100BE0004FF000084FF0000B21F00701AC46ACE8D5
:100BF000C009ACE8C009ACE8C009ACE8C0098D4642
:100C0000704710B50446AFF300802046BDE81040A1
:100C1000FFF7C6BA4FF0013C50F8042B51F8043BE3
:100C20009A4221D1A2EB0C03934313EACC1317D1C0
:100C300050F8042B51F8043B9A4215D1A2EB0C0357
:100C4000934313EACC130BD150F8042B51F8043B17
:100C50009A4209D1A2EB0C03934313EACC13DBD0E5
:100C60004FF00000704700BFD01A01BAB1FA81F10D
:100C700001F0180122FA01F0CB40C1F12001DBB2F2
:100C8000C0B2C01A2CFA01F3D11A914311EAC31170
:100C9000E6D1704701491820ABBEFEE726000200EE
:100CA00070475FEA400C08BF91F0000F4FEA8C23B9
:100CB0004FEAC12243EA51514FEA1C5018BF00F5D8
:100CC000F0404FEA300018BF41F000415FEA6C5C31
:100CD00000F02980BCF1FF3F08BF40F08040704722
:100CE000130C06BF12044FF0100C4FF0000C130E43
:100CF00004BF12020CF1080C130F04BF12010CF117
:100D0000040C930F04BF92000CF1020CD30F04BF2C
:100D100052000CF1010C11464FF00002A0F11F002F
:100D2000A0EB0C00704711F0004F08BF704731F086
:100D300000413FF4D5AF0B0C06BF09044FF0100C77
:100D40004FF0000C0B0E04BF09020CF1080C0B0F46
:100D500004BF09010CF1040C8B0F04BF89000CF1D6
:100D6000020CCB0F04BF49000CF1010CCCF12003A5
:100D7000A0EB0C0022FA03F302FA0CF241EA0301A1
:100D800000F10100704720F07F4C80EA030023F05F
:100D90007F47ACEB070303F57C5300F0004003F101
:100DA000FF032DE980494FEA154B09B44FEA14437C
:100DB00025EA0B4E24EA03480FF2042606EB13271C
:100DC00049083E785FEA320203FB0667C7F5000771
:100DD00007FB06F64FEA54374FEAD64606F10206FD
:100DE00007FB066CCCF1005C4FEA1C472CEA074C71
:100DF00007FB06F40CFB06F504EB15464FEA9616C6
:100E000034BF00204FF000404FEAD13706FB07FC0B
:100E10004FEA1C4C0CFB0BF7D21B03FB0CF761EBEE
:100E200007010CFB0EF7B0EB074072EB17420CFB0F
:100E300008F734BFA2EB0742B2EB074261EB174160
:100E40004FEA0C444FEA910706FB07FC4FEA1C4CA3
:100E50000CFB0BF7B0EBC74072EB573203FB0CF700
:100E600034BFA2EBC742B2EBC74261EB57310CFB78
:100E70000EF7B0EBC70072EB57720CFB08F734BFEC
:100E8000A2EBC702B2EBC70261EB5771039F4FEAB7
:100E9000816141EA921104EBCC044FEAD1374FEA69
:100EA000826206FB07FC42EA90124FEA80604FEA3A
:100EB0001C4C0CFB0BF7D21B03FB0CF761EB07017F
:100EC0000CFB0EF7B0EB074072EB17420CFB08F778
:100ED00034BFA2EB0742B2EB074261EB17414FEA86
:100EE0008C554FEA910704EB9C2406FB07FC4FEA64
:100EF0001C4C0CFB0BF7B0EBC74072EB573203FBFB
:100F00000CF734BFA2EBC742B2EBC74261EB5731DB
:100F10000CFB0EF7B0EBC70072EB57720CFB08F737
:100F200034BFA2EBC702B2EBC70261EB577115EBFE
:100F30004C254FEA816141EA92114FEA82624FEA01
:100F4000D13742EA901206FB07FC44F100044FEA55
:100F500080604FEA1C4C0CFB0BF7D21B03FB0CF719
:100F600061EB07010CFB0EF7B0EB074072EB174289
:100F70000CFB08F734BFA2EB0742B2EB074261EB70
:100F8000174115EB1C154FEA813141EA92414FEAB6
:100F9000823242EA90424FEA80304FEA0C7644F1C6
:100FA000000448EA03434EEA0B484FF0000EB2EB50
:100FB000080C71EB030724BF624639464EEB0E0E58
:100FC0004FF0000B0018524149414BEB0B0BB2EBB9
:100FD000080C71EB03077BF1000B24BF6246394616
:100FE0004EEB0E0E4FF0000B0018524149414BEBF7
:100FF0000B0BB2EB080C71EB03077BF1000B24BF6A
:10100000624639464EEB0E0E51EA020718BF46F013
:10101000010616EB0E7655F1000254F1000103D5DE
:10102000BDE88901BDE80088BDE88901BDE8004848
:10103000B619524141EB0101A3F1010370478080D1
:101040007F7E7D7C7B7A7978777676757473727122
:1010500071706F6E6E6D6C6C6B6A6A6968686766DA
:1010600066656464636362616160605F5F5E5E5D6C
:101070005D5C5C5B5B5A5A595958585757565655E0
:1010800055555454535352525251515050504F4F42
:101090004F4E4E4D4D4D4C4C4C4B4B4B4A4A4A4992
:1010A00049494848484747474746464645454544D5
:1010B0004444444343434342424242414141002B62
:1010C0009C4630D477002BD01CB54FEA370703B4C9
:1010D0004FF010004FF01001BAF1000F06D0BCF134
:1010E000000FDCBF40F0080040F008014FF00000A6
:1010F0000FBCBDE810400BF1010BBBF1010F08BFA5
:101100005FEA170722BF12F1010211F101014FF04E
:10111000004143F1000300F0004043EA0000704743
:10112000F9D35708D0E746EA064613F1400F4FEAD5
:1011300016461FDD13F1200FDFBF16430A460021BC
:1011400020335B42BED0C3F1200746EA064602FACE
:1011500007F74FEA164646EA0706C3F1200722FAC8
:1011600003F201FA07F721FA03F14FF0000342EA14
:101170000702A7E746EA020646EA06464FEA16468F
:1011800046EA0106BCBF46EA0646360C4FF00003AD
:101190004FF000024FF0000194E72DE9804C9A4691
:1011A000934670B491E8380007C831EA400C48BF54
:1011B00034EA430C03D5FFF7E6FDFFF780FFF0BCF0
:1011C000BDE8008C2DE9804C9A46934670B491E8B6
:1011D000380007C810F0804F08BF13F0804F03D1CC
:1011E00000F005F8FFF76BFFF0BCBDE8008C20F0C5
:1011F0007F4780EA030023F07F4C07EB0C03A3F545
:101200007C5300F00040A3F1FE0392F0000F00F0C9
:10121000B38095F0000F00F077802DE901494FEA87
:1012200011404FEA144621EA004800FB06FC24EA7C
:10123000064708FB06F607FB08F800FB07F718EB64
:1012400006484CEB164C4FEA124B18EB07484FEA96
:1012500015464CEB174022EA0B4E0BFB06FC25EA29
:1012600006470EFB06F607FB0EFE0BFB07F71EEB11
:10127000064E4CEB164C4FF000061EEB074E4CEBA7
:10128000174B18EB0B0840F1000018EB0E0B58EB56
:10129000000840F100008F1A4FF000013CBFC94325
:1012A000661B14BFB5EB040C00213CBFC943F61B01
:1012B0004FEA17444EEA8E0E27EA04454FEA1C47D0
:1012C00004FB07622CEA074C05FB07F70CFB05F64D
:1012D00004FB0CFC16EB074642EB174216EB0C46E0
:1012E00042EB1C421BEB060658EB0202414146EA68
:1012F0009E0601D5BDE80189B619524141EB0101B5
:10130000A3F10103BDE801894FEA14454FEA1147F3
:1013100024EA054621EA074C05FB07F406FB07F71C
:101320000CFB06F105FB0CFC11EB074144EB1744E9
:101330004FEA124711EB0C4144EB1C4422EA074CE4
:1013400005FB07F206FB07F70CFB06F605FB0CFC9A
:1013500016EB074642EB174216EB0C4642EB1C45D8
:101360006A1854F1000148BF7047B619524141EB69
:101370000101A3F10103704795F0000F37D04FEA48
:1013800011424FEA144721EA024624EA074C02FBC5
:1013900007F106FB07F70CFB06F402FB0CFC14EB51
:1013A000074441EB17414FEA154714EB0C4441EB5E
:1013B0001C4125EA074C02FB07F506FB07F70CFB6F
:1013C00006F602FB0CFC16EB074645EB174516EB41
:1013D0000C4645EB1C42121951F1000148BF704701
:1013E000B619524141EB0101A3F1010370474FEAE5
:1013F00014454FEA114724EA054621EA074C05FB4C
:1014000007F106FB07F70CFB06F24FF0000605FBA1
:101410000CFC12EB074241EB174112EB0C4251EB73
:101420001C4148BF7047921841EB0101A3F1010331
:101430007047000070B5044600688168C943C90759
:1014400017D1816821F00101816000F0E9FC0546B7
:101450000AE000BF00F0E4FC401B022804D9206829
:101460008068C043C00706D020688068C043C007BA
:10147000F0D0002070BDA06A40F01000A062E06AC9
:1014800040F00100E062012070BD0000F8B50026C8
:101490000446009600688168C943C9072DD0816859
:1014A00041F001018160164816490068B0FBF1F077
:1014B00000E0401E00900028FBD100F0B1FC054682
:1014C00016E000BF00F0ACFC401B022810D92068D9
:1014D0008068C043C0070BD0A06A40F01000A06233
:1014E000E06A40F00100E06284F824600120F8BD69
:1014F00020688068C043C007E4D10020F8BD000028
:101500001000002040420F00FEE700002DE9F043EC
:1015100087B000248146012504942020039500947F
:10152000CDE901400220414E0590904602A9304687
:1015300000F07CFB00222021304600F06CFC1420DF
:1015400000F062FB01222021304600F064FC1E20E6
:1015500000F080F802A93046CDE9034500F066FBB3
:101560002021304600F052FC18B1012007B0BDE840
:10157000F08334462021204600F048FC0028F9D0B2
:101580002021204600F042FC0028F9D100256E46BB
:1015900000272021204600F039FC0028F9D028201F
:1015A00000F058F8705D202140007055204600F092
:1015B0002DFC18B1705D40F00100705520212046CF
:1015C00000F024FC0028F9D17F1CFFB2082FE0D3E3
:1015D0006D1CEDB2052DDBD39DF800109DF80100C8
:1015E0009DF802300A189DF8030003441A449DF840
:1015F00004309A4201D00220B8E7B8F1000F01D0C0
:1016000088F80010B9F1000F0ED002F043FD084930
:1016100002F07EFC04469DF8020002F03BFD2146EC
:1016200002F014FCC9F8000000209FE70008014008
:1016300000002041054808B5816941F01001816131
:10164000806900F01000009008BD0000001002400A
:101650007047000070B5084C0546002021684862BC
:10166000204601F0BFF92068416AA942FCD3BDE8D9
:101670007040014801F0DEB99800002072B6FEE724
:10168000F8B50024009490F824202546012A12D0B1
:10169000012280F824204A681F23072A0DD20668F9
:1016A000776B521E02EB820293409F430B6893407C
:1016B0001F43776319E00220F8BD06680D2A0AD29D
:1016C000376BD21F02EB820293409F430B6893401B
:1016D0001F43376309E0F76A0D3A02EB8202934039
:1016E0009F430B6893401F43F7620A68072306680D
:1016F0000A2A0AD3F7680A3A02EB420293409F4350
:101700008B6893401F43F76008E0376902EB4202A1
:1017100093409F438B6893401F4337610A68102AA8
:1017200001D0112A20D1124B02689A4217D1936836
:101730001B0219D4936843F40003936009681029CD
:1017400012D10C490C4A0968B1FBF2F101EB81019D
:10175000490000E0491E00910029FBD104E0816AA4
:1017600041F020018162012480F824502046F8BD18
:10177000002401401000002040420F000068C06CAF
:10178000704700002DE9F0414FF0000704003D468E
:101790007ED0A06A002628B9E66284F8246020463C
:1017A00000F07EF82046FFF745FEA16AC90600D486
:1017B00020B1A06A40F01000A06269E0A16A21F4A3
:1017C000885141F00201A1626268E169237B0A430A
:1017D00047EA43010A43A1684FF48077B94209D030
:1017E000012907D05FF0000194F814C0BCF1010F8B
:1017F00002D00AE03946F7E7F3B1A36A43F02003C9
:10180000A362E36A43F00103E3622368D3F804C0F0
:101810002CF4694C4CEA010CC3F804C021688B68B5
:10182000DFF870C003EA0C0313438B60A168B94270
:101830000BD0012909D00CE0DFF85CC0A3690CEBE8
:1018400043330B4343F40061DFE7218A0D05A5F51F
:1018500080152168CB6A23F470032B43CB62216887
:1018600089680E4B1940914208D1E662A16A21F0C5
:10187000020141F00101A162BDE8F081A06A20F0FF
:10188000020040F01000A062E06A40F00100E06257
:101890000120F1E7FDF7E1FF00E0FFFFFE0E1FFF73
:1018A00000B585B00021009101910291039100687B
:1018B0000E49884218D10E48816941F40071816156
:1018C000816901F400710491816941F00401816131
:1018D0008069694600F00400049010200090032005
:1018E0000190044800F0A2F905B000BD00240140B9
:1018F00000100240000801402DE9F84300270D4682
:101900000446009700F08CFA804620688168C9057B
:1019100008D5A06A40F02000A06284F8247001205D
:10192000BDE8F8834168C90503D4C06A10F4700F9C
:101930002AD0022000F09AFC3B490968B1FBF0F67E
:101940002068036939490B424FEA61014FEAA1124D
:101950001FD1C3684FEA611C13EA0C0F19D1036948
:101960000B4225D1C068104222D1142023E0681C0C
:101970000AD02DB100F054FAA0EB0800A84203D918
:1019800020680068800725D5206800688007EED5AC
:101990002DE003690B4202D1C168114206D00269F1
:1019A00023490A4206D1C068084203D1542002E00C
:1019B000292000E0FC204643009816E0681C11D066
:1019C0002DB100F02DFAA0EB0800A8420AD900982A
:1019D000B04207D2A06A40F00400A06284F82470EC
:1019E00003209DE70098401C0090B042E6D3216898
:1019F0006FF012000860A06A40F40070A0622068D6
:101A00008068C0F3424007280CD1207B50B9A06AFF
:101A100020F48070A062A06AC00403D4A06A40F0E1
:101A20000100A06200207BE71000002024499224DE
:101A30004992240070B5044690F8240001280DD086
:101A4000012084F824002046FFF720FD02004FF01B
:101A5000000005D084F82400104670BD022070BD3F
:101A6000A16A40F20123994341F48071A1621F4DA4
:101A700023681F49AB4218D10E6816F4702F14D09A
:101A8000A66A46F48016A6620E68760505D5A66A93
:101A900026F4005646F48056A662A66AF6040AD5D5
:101AA000E66A26F00606E66206E0A66A26F48016D6
:101AB000A6625E68E9E7E06284F824006FF0020045
:101AC000186020688368C3F34243072B05D1A842FE
:101AD00008D1096811F4702F04D0816841F4801195
:101AE0008160B9E7816841F4A001F9E7002801406D
:101AF0000424014010B5044690F82400012807D0C2
:101B0000012084F824002046FFF794FC10B107E080
:101B1000022010BDA16A21F4885141F00101A162A7
:101B2000002184F8241010BD10B590F82110002277
:101B3000022905D00421816380F82020012010BDF6
:101B400001680B6823F00E030B6001680B6823F03B
:101B500001030B6090F84030C46B012101FA03F3DC
:101B6000636080F8211080F82020104610BD00002E
:101B700010B590F821100024022903D004218163BC
:101B800001243DE001680A6822F00E020A60016843
:101B90000A6822F001020A601A4A0168914201D1E2
:101BA000012121E0174A1432914201D110211BE09A
:101BB000144A2832914201D1891515E0114A3C326C
:101BC000914201D189140FE00E4A5032914202D164
:101BD0004FF4803108E00B4A6432914202D14FF455
:101BE000801101E04FF08071064A083A51600121EE
:101BF00080F82110002180F82010416B01B1884746
:101C0000204610BD0800024070B5044600F008F9F7
:101C10000546601C02D004480078044400F000F936
:101C2000401BA042FAD370BD040000202DE9F84FFC
:101C3000DFF8B8910024A9F1040B23460F2709F11E
:101C4000040AABF1040EC9E00125A5402A40AA42CE
:101C50007DD1674ED1F804C0ACEB0608B44532D054
:101C600014DCBCF1030F3AD009DCBCF1000F2AD020
:101C7000BCF1010F1CD0BCF1020F31D11DE0BCF151
:101C8000110F17D0BCF1120F2AD119E0B8F5881F37
:101C900019D006DCB8F5803F15D0B8F5801F1FD1EC
:101CA00011E0B8F5001F0ED0B8F5041F18D10AE0F6
:101CB000CB6815E0CB681B1D12E0CB6808330FE042
:101CC000CB680C330CE08B682BB1012B4FF0080371
:101CD00003D0456104E0042302E0056100E0002335
:101CE000FF2A01D8064601E000F104064FEA840508
:101CF00001D9A5F12005D6F8008007FA05FC28EAED
:101D00000C0803FA05F548EA0508C6F800804D6896
:101D1000ED0062D5374DAE6946F00106AE61AD69A2
:101D200024F0030605F001050095334D06EB050C84
:101D3000DCF80850A607360F07FA06F825EA08056A
:101D4000DFF8B880404503D14FF0000817E044E0C9
:101D5000DFF8AC80404502D14FF001080FE0DFF81A
:101D6000A480404502D14FF0020808E0DFF89880D7
:101D7000404502D14FF0030801E04FF0040808FA93
:101D800006F848EA0508CCF808804D68D9F80060E4
:101D9000ED024D4601D5164300E096432E604D6896
:101DA000DAF80060AD02554601D5164300E09643CF
:101DB0002E604D68DBF80060AD035D4601D516432B
:101DC00000E096432E604D68DEF80060ED03754636
:101DD00001D5164300E096432E60641C0D682A4628
:101DE000E5407FF431AFBDE8F88F00000804014002
:101DF00000001110001002400000014000080140E6
:101E0000000C0140001001400014014080680840AF
:101E100000D0012070470AB1016170470904FBE757
:101E200001488068704700000400002070B504007D
:101E300025D094F83D00002520B984F83C50204678
:101E400000F04EF9242084F83D002068016821F05C
:101E5000010101602068016841F4004101602068CF
:101E6000016821F40041016000F05EFB4D4A6168A9
:101E7000914201D84C4900E04C49884201D20120EE
:101E800070BD4B492368B0FBF1F15E6826F03F0658
:101E90000E435E606368934206D94FF496735943CC
:101EA0004FF47A73B1FBF3F12368491C1E6A26F0E4
:101EB0003F06314319626168914210D84900401EC3
:101EC000B0FBF1F2521CC2F30B02042A01D204202F
:101ED00022E0B0FBF1F0401CC0F30B001CE0A26854
:101EE000F2B301EBC10303EB0116431EB3FBF6F3A0
:101EF0005B1C43F480431B0549D092B301EBC10244
:101F000002EB0111401EB0FBF1F0401CC0F30B00CE
:101F100040F4804040F400402168CA694CF6FF73E9
:101F20009A431043C861D4E907100143206802684E
:101F300022F0C00211430160D4E90301014320688B
:101F4000826848F2FF339A4311438160D4E9050166
:101F500008432168CA6822F0FF021043C86001E00C
:101F60000EE016E02068016841F00101016025647F
:101F7000202084F83D00256384F83E50002070BD89
:101F800001EB4106431EB3FBF6F35B1CB3E70120F4
:101F9000C2E701EB4101401EB0FBF1F0401CC0F371
:101FA0000B00B7E7A086010080841E0000093D00F9
:101FB00040420F002DE9F84F1F4690468A460446DE
:101FC000DDF82890FFF72CFF054694F83D00202807
:101FD0007FD11923012240492046009501F074F871
:101FE000002876D194F83C00012872D0012084F8B2
:101FF0003C0020680168C90703D1016841F0010174
:1020000001602068016821F400610160212084F8EA
:102010003D00102084F83E0000262664C4F8248089
:102020006785608D20852D48E0622B464A465146E3
:10203000204600F0CFFF90B9206841698069009088
:1020400036E02A464946204601F0E4F850B1206CBB
:10205000042804D12068016841F400710160012066
:10206000BDE8F88F606A216800780861606A401CEA
:102070006062618D491E6185218D491E89B221856D
:1020800022685369DB435B070BD451B100781061C0
:10209000606A401C6062608D401E6085208D401E1D
:1020A00020852A464946204600F0E2FF0028CED18E
:1020B000208D0028C5D154F83D0B016841F4007112
:1020C0000160202004F81E09E67766770020C7E744
:1020D000FFE70220C4E70000020010000000FFFF3D
:1020E00010B586B000210091019102910391006822
:1020F0000F4988421AD10F4CA06940F00800A06136
:10210000A069694600F008000490C02000901220E9
:102110000190032003900848FFF788FDE06940F430
:102120000010E061E06900F40010049006B010BDFA
:102130000054004000100240000C01400248816839
:10214000027811448160704704000020074810B5F0
:10215000016841F010010160032000F075F80F20C4
:1021600000F006F800F024F8002010BD0020024026
:1021700070B50D4D04464FF47A712878B1FBF0F03C
:102180000A490968B1FBF0F000F0A4FB48B9102C33
:1021900007D200222146501E00F036F800206C6065
:1021A00070BD012070BD0000040000201000002060
:1021B0000C4808B5816941F001018161816901F034
:1021C00001010091C16941F08051C161C06900F015
:1021D000805000900448416821F0E06141F00071B6
:1021E000416008BD0010024000000140002809DBEA
:1021F00000F01F02012191404009800000F1E02021
:10220000C0F8001170470000F0B40E4B1B680C467C
:10221000C3F30223C3F10705042D00D90425191DBA
:10222000072901D2002300E0DB1E012606FA05F192
:10223000491E214099409E40761E16403143F0BC15
:1022400001F054BC0CED00E0064900F007020868FC
:102250004FF6FF03184040EA0220034A104308608B
:10226000704700000CED00E00000FA0510B50146D3
:102270000020234C012922D0022939D010291DD158
:1022800061682268D20119D51E48C1F38342C9038F
:10229000805C0AD561681B4AC1F34041921E515CC3
:1022A000194AB2FBF1F1484301E01849484361681B
:1022B000490203D440000321B0FBF1F010BD226AB3
:1022C000C2F30121012903D1920701D5C80310BD32
:1022D000022905D1626A920702D549F6404010BD35
:1022E0000329FCD121688903F9D54FF2244010BDA0
:1022F00000F02AF96168C1F38131491C4900DBE72C
:10230000001002406A4A000800127A0000093D00ED
:102310002DE9F84305460078354CC00754D0E069F4
:102320000026C00008D4E06940F08050E061E06918
:10233000012600F0805000902E480168C90512D493
:102340000168804641F480710160FFF769FD07462E
:1023500005E000BFFFF764FDC01B642823D8D8F850
:102360000000C005F6D5206A10F4407021D0A9887D
:1023700001F4407181421CD0206A1F49012220F4DF
:1023800040700A6000220A602062C00711D0FFF787
:1023900047FD074641F2883808E000BFFFF740FDDF
:1023A000C11B414502D90320BDE8F883206A80079C
:1023B000F4D5206A696820F44070084320621EB199
:1023C000E06920F08050E0612878800705D56068DA
:1023D000A96820F44040084360602878C00605D50D
:1023E0006068E96820F48000084360600020DBE753
:1023F0000010024000700040400442422DE9F047C6
:102400000F46050061D0434E306800F00700B84227
:1024100009D2306820F0070038433060306800F09F
:102420000700B84251D128683B4C810712D54007BC
:1024300003D5606840F4E06060602878000703D549
:10244000606840F4605060606068A96820F0F00047
:10245000084360602878C00728D06868012810D039
:102460002168022810D0890700292EDA616821F03E
:10247000030101436160FFF7D3FC804641F28839D4
:102480000DE021688903EFE78901EDE7FFF7C8FC5C
:10249000A0EB0801494502D90320BDE8F087606838
:1024A000696800F00C00B0EB810FEFD1306800F0EC
:1024B0000700B8420BD9306820F00700384330607D
:1024C000306800F00700B84201D00120E5E7287825
:1024D000400705D56068E96820F4E0600843606063
:1024E0002878000706D56068296920F4605040EA22
:1024F000C100606000F038F86168084AC1F3031158
:10250000515CC8400649086006480068FFF730FE85
:102510000020C2E700200240001002407A4A000872
:1025200010000020080000200448054900684968A0
:10253000044AC1F30221515CC840704710000020DA
:10254000001002408A4A00080448054900684968AA
:10255000044AC1F3C221515CC840704710000020FA
:10256000001002408A4A00080E4A51680E4801F0E5
:102570000C03042B11D0082B0FD10C48C1F383435B
:10258000C903C05C0AD55168084AC1F34041921E94
:10259000515C054A5043B0FBF1F070470449484391
:1025A000704700000010024000127A00584A0008EC
:1025B00000093D002DE9F84F040070D02078C04D8F
:1025C000C00749D06868C0F38100012807D0686857
:1025D000C0F38100022809D16868C00306D52868C5
:1025E000800339D560680028E7D035E06068B0F531
:1025F000803F0BD010B1B0F5A02F11D0286820F487
:1026000080302860286820F4802002E0286840F4A8
:1026100080302860606890B1FFF702FC06460AE04F
:10262000286840F480202860F0E700BFFFF7F8FB3F
:10263000801B642873D828688003F7D50CE0FFF767
:10264000EFFB064605E000BFFFF7EAFB801B6428AE
:10265000F0D828688003F7D420789A4E80074FF08E
:1026600001094FF0000839D5686810F00C0F07D049
:102670006868C0F38100022809D16868C00306D4E5
:102680002868800714D52069012808D110E0206946
:10269000B0B1C6F80090FFF7C3FB074605E00AE1BA
:1026A000FFF7BEFBC01B0228C4D828688007F7D5F7
:1026B0002868616920F0F80040EAC10028600DE058
:1026C000C6F80080FFF7ACFB074604E0FFF7A8FB65
:1026D000C01B022823D828688007F7D42078000779
:1026E0002CD57948A169D9B1C0F80090FFF798FBC3
:1026F000074604E0FFF794FBC01B02280FD8686A66
:102700008007F7D571484FF4FA510068B0FBF1F03B
:10271000009000BF0098411E0091FAD20EE080E0C8
:10272000C0F80080FFF77CFB074604E0FFF778FB6A
:10273000C01B022875D8686A8007F7D42078400744
:1027400060D5E8690027C00008D4E86940F08050EF
:10275000E861E869012700F0805000905C4801685A
:10276000C90513D40168834641F480710160FFF705
:1027700057FB824606E000BFFFF752FBA0EB0A00C2
:1027800064284ED8DBF80000C005F5D5E0680128C4
:102790000AD008B1052813D0286A20F00100286269
:1027A000286A20F0040002E0286A40F00100286254
:1027B000E06841F2883B98B1FFF732FB82460BE0BC
:1027C000286A40F004002862EEE700BFFFF728FB0C
:1027D000A0EB0A0159455AD8286A8007F6D50CE0C3
:1027E000FFF71EFB824605E0FFF71AFBA0EB0A018C
:1027F00059454CD8286A8007F6D41FB1E86920F003
:102800008050E861E06988B36968C1F381010229F9
:1028100044D00228C6F8608004D0FFF701FB0446CC
:1028200038E034E0FFF7FCFA074604E0FFF7F8FA77
:10283000C01B02282BD828688001F7D4206AB0F585
:10284000803F05D16868A16820F4003008436860C3
:10285000D4E908010843696821F4741108436860E9
:10286000C6F86090FFF7DCFA044606E025E000BFFA
:10287000FFF7D6FA001B022809D828688001F7D58F
:102880001BE000BFFFF7CCFA001B022802D903208F
:10289000BDE8F88F28688001F4D40EE00128F7D055
:1028A0006868226A00F48031914204D1616A00F4C0
:1028B0007010884201D00120EAE70020E8E700001C
:1028C00000100240000042428004424210000020FA
:1028D0000070004010B5401EB0F1807F01D3012090
:1028E00010BD4FF0E02460610F21601701F0FEF889
:1028F0000020A06107202061002010BD70B590F875
:102900003C20012A26D0012480F83C40022280F895
:102910003D2003685A689D6822F070060A683243B9
:102920005A600D4B02689A4208D0B2F1804F05D030
:102930000A4B9A4202D00A4B9A4204D1496825F0C8
:1029400080031943916080F83D40002180F83C10DD
:10295000084670BD022070BD002C014000040040FC
:102960000008004010B5040003D094F83D0010B1F9
:1029700007E0012010BD002084F83C00204600F054
:102980001FF8022084F83D00211D206800F0BAFEE7
:10299000012084F8460084F83E0084F83F0084F863
:1029A000400084F8410084F8420084F8430084F831
:1029B000440084F8450084F83D00002010BD00006C
:1029C00008B50068B0F1804F08D10548C16941F0F1
:1029D0000101C161C06900F00100009008BD000064
:1029E0000010024090F83D10012901D001207047ED
:1029F000022180F83D1000680B49884208D0B0F1F0
:102A0000804F05D00949884202D00949884204D143
:102A1000816801F00701062903D0016841F0010136
:102A20000160002070470000002C014000040040BD
:102A30000008004001680A6A41F211131A4207D1E6
:102A40000A6A9B101A4203D10A6822F001020A6046
:102A5000012180F83D100020704770B5044690F8C1
:102A60003C000025012817D0012684F83C60022094
:102A700084F83D002068826822F0770222F47F42C9
:102A800082600868502838D00DDC20284FD005DC43
:102A900090B3102811D14AE0022070BD302846D0F2
:102AA00040280AD13BE060282FD070280DD0B0F527
:102AB000805F03D0B0F5005F12D0012584F83D603F
:102AC000002084F83C00284670BDCB68D1E9012184
:102AD000206800F053FE2068816841F0770109E02A
:102AE000CB68D1E90121206800F048FE20688168A8
:102AF00041F480418160E1E719E0CA6849682068D3
:102B000000F04EFE5021206806E0CA68496820683F
:102B100000F057FE6021206800F03AFECEE7CA6858
:102B20004968206800F03CFE40212068F4E72268F4
:102B300001461046F0E7704770470000F8B501689D
:102B400004460868CA684B6910F00F0F4FF0000583
:102B500059D003F0010602F49077374365D0C107DE
:102B600005D0D10503D5616C41F0010161644107D5
:102B700005D5D90703D0616C41F00201616481077A
:102B800005D5D90703D0616C41F0040161640107E8
:102B900007D502F02001314303D0616C41F00801F8
:102BA0006164616C00293AD0800604D5900602D594
:102BB000204600F047FE20684069616CC0F3801039
:102BC000090700D460B3204600F015FE2068406974
:102BD000400621D52068143050E8001F21F0400144
:102BE00040E80012002AF5D1E06BA8B16D494163BD
:102BF000E06BFEF7BDFF002811D0E06B416B01B028
:102C0000BDE8F040084783060FD593060DD5204652
:102C1000BDE8F84000F016BE2046FFF78DFFF8BD76
:102C20002046FFF789FF6564F8BD266B2023012E3F
:102C30007CD1C6067AD5D60678D508684868009053
:102C400048694FF00206400640D5E16B08684068CD
:102C50000004000CE8D0A28D8242E5D9E0858869A5
:102C600020282DD020680C3050E8001F21F48071FE
:102C700040E80012002AF5D12068143050E8001F07
:102C800021F0010140E80012002AF5D1206814303B
:102C900050E8001F21F0400140E80012002AF5D161
:102CA00084F84230256320680C3050E8001F21F082
:102CB000100140E80012002AF5D1E06BFEF734FF66
:102CC0006663A08DE18D401A81B22AE0A08DE18D6E
:102CD000401A81B2E08D0028A6D00029A4D0226835
:102CE0000C3252E8000F20F4907042E80007002FE9
:102CF000F5D12068143050E8002F22F0010240E89E
:102D00000027002FF5D184F84230256320680C306D
:102D100050E8002F22F0100240E80023002BF5D1EC
:102D200066632046FFF707FFF8BDFFE705062BD5D2
:102D3000150629D594F841002128F5D1A068B0F5F1
:102D4000805F01D12069B0B1206A411C21622168F5
:102D500000784860E08C401E0004000CE084E3D161
:102D60002068C16821F08001C1602068C16841F01D
:102D70004001C160D8E7206A0088C0F308004860BD
:102D8000206A801C2062E5E74006CDD55006CBD5F1
:102D9000CA68204622F04002CA6084F8413000F040
:102DA000FFF8C1E7E737000870B5040004D094F8D5
:102DB0004100002510B106E0012070BD84F84050AC
:102DC000204600F023F8242084F841002068C168E0
:102DD00021F40051C160204600F096FD2068016991
:102DE00021F4904101612068416921F02A0141618B
:102DF0002068C16841F40051C1606564202084F8F6
:102E0000410084F842006563002070BD30B585B094
:102E100000240094019402940394006818498842A5
:102E20002BD11848C16941F40031C161C16901F475
:102E300000310491816941F0040181618069124D82
:102E400000F0040004900420009002200190032070
:102E5000039069462846FEF7E9FE0820CDE9000404
:102E6000694628460294FEF7E1FE0022114626201C
:102E7000FFF7CAF92620FFF7B9F905B030BD000009
:102E800000440040001002400008014090F8423029
:102E9000202B01D00220704721B11AB10023036317
:102EA00000F08EBD01207047124910B588421FD135
:102EB0001148124C0078612802D0622807D010E037
:102EC000012211462046FEF7A6FF002205E000225F
:102ED00001212046FEF79FFF012202212046FEF736
:102EE0009AFFBDE81040012203490248FFF7CEBF18
:102EF00010BD0000E000002000000020000C014098
:102F00002DE9F843044690F84100984616460D46D0
:102F1000202802D00220BDE8F88385B17EB10020D0
:102F20006064212084F84100FEF77AFFA684814680
:102F3000E684A0682027B0F5805F02D003E001207E
:102F4000E9E7206910B12E4600250EE000260CE0CE
:102F50008021204600F04FFDA8B9C6B116F8010B3C
:102F600021684860E08C401EE084E08C4B464FF0C6
:102F70000002CDF800800028EAD14FF04001204641
:102F800000F039FD40B184F841700320C3E735F803
:102F9000020BC0F30800E3E784F841700020BAE7B1
:102FA0007047FEE701684A69D24352050FD46FF4B7
:102FB00080624A61002140F8301F202242738173F1
:102FC000026942F00402026101730120704700208F
:102FD00070470000F8B50446C06A1E460D46174605
:102FE000082807D0012805D010F5803F02D0206BBB
:102FF000122804D12068016841F4807101601346F1
:1030000000224FF001112046009600F05DF840B11B
:1030100020680068C00502D54FF4007020640320CA
:10302000F8BD2069B0F5804F0ED00620216800EA77
:10303000D51040F0F000086133463A460B4920466F
:1030400000F08AF878B902E005F0FE0000E0E8B28E
:1030500021680861054933463A46891F204600F039
:103060007BF80028DCD00120F8BD0000080001003A
:1030700070B516460D4604461EE02046FFF792FF47
:1030800008B1012070BD681C16D0FEF7C9FE801B78
:10309000A84200D885B920684069C04340070BD5D5
:1030A000002044F8300F20216173A073216941F0A2
:1030B000200121612073E4E720684069C043400794
:1030C000DBD4002070BD00002DE9F047984617467C
:1030D0000D460446C1F30746DDF820902AE000BF04
:1030E000B8F1FF3F26D0FEF79BFEA0EB090141455A
:1030F00002D8B8F1000F1DD12068012E16D08069CA
:1031000025EA00000004000C12D00020B84211D1C2
:10311000002044F8300F20216173A073216941F031
:103120002001216120730120BDE8F0874069E7E7B5
:103130000120EBE72068012E0AD0806925EA000013
:103140000004000C06D00020B842C9D00020EBE7F4
:103150004069F3E70120F7E72DE9F0479846164666
:103160000D4604464FF000094FF0200AC1F307470F
:1031700023E020684069C043400515D420680168F9
:1031800041F40071016021686FF480604861C4F807
:10319000309084F83DA084F83E90216C41F0040109
:1031A000216484F83C9021E0701C06D0FEF738FEC4
:1031B000A0EB0800B04203D816B1012F1FD021E0C8
:1031C0002068012F15D0806925EA00000004000C5A
:1031D00018D000BF44F8309F84F80DA084F80E90FA
:1031E000216941F02001216184F80C900120BDE8A3
:1031F000F087406925EA00000004000CEAD120684D
:10320000406901E02068806925EA00000004000CA4
:10321000AFD1ECE770B516460D4604461EE02046D9
:10322000FFF7C0FE08B1012070BD681C16D0FEF784
:10323000F7FD801BA84200D885B920684069C043CB
:1032400000060BD5002044F8300F20216173A073D5
:10325000216941F0200121612073E4E72068406981
:10326000C0430006DBD4002070BD000010B5094843
:10327000FEF7E0FB05210748FEF73EFB0548FEF799
:103280007DFA04460348FEF735FCA4F6FF7460425D
:1032900010BD0000140000203EB500241148009429
:1032A000019402940E498460016004730475012541
:1032B00005614FF460214460C161FEF763FA08B113
:1032C000FEF7DCF90420CDE90005694602940548C3
:1032D000FEF7D6F9002801D0FEF7D0F93EBD000078
:1032E00000240140140000202DE9F04186B00024A4
:1032F00020480094019402940394816941F02001D4
:103300008161816901F020010491816941F004012A
:103310008161816901F004010491816941F0080132
:1033200081618069144F00F0080004900022802120
:103330003846FEF770FDDFF8448000220321404646
:10334000FEF769FD8020009001AA112001250226C8
:1033500082E8610069463846FEF768FC0320CDE943
:103360000005CDE9024669464046FEF75FFC06B01F
:10337000BDE8F0810010024000080140000C01404F
:103380000D4810B50B4901600C49416000214FF414
:1033900080428160C0E9031241618161C1610162C3
:1033A000FEF744FD002803D0BDE81040FEF766B9E3
:1033B00010BD00000054004044000020801A0600A8
:1033C00010B586B00024164800940194029403942A
:1033D00004944FF08041059401604721C0E9011435
:1033E0004FF6FF71C0E903148461FFF7BBFA08B11F
:1033F000FEF744F94FF48050009069460848FFF703
:103400002CFB08B1FEF73AF9049404A9044805948A
:10341000FFF774FA002801D0FEF730F906B010BDAE
:10342000980000200E4810B50C4901604FF4E131BE
:103430004160002181600C22C160C0E904128161F9
:10344000C161FFF7B1FC08B1FEF718F9BDE8104003
:10345000012204490248FFF719BD00000044004062
:10346000E000002000000020FEE7FEE770B5002429
:1034700004F1B000C0B2002100F0FDF800210846C0
:1034800000F0F9F80021102000F0F5F800250121E6
:10349000002000F0F0F86D1CEDB2802DF7D3641C15
:1034A000E4B2082CE4D370BD10B54FF44870FEF7B9
:1034B000ABFB0021AE2000F0DEF80021084600F052
:1034C000DAF80021102000F0D6F80021402000F0AA
:1034D000D2F80021B02000F0CEF80021812000F0C9
:1034E000CAF80021FF2000F0C6F80021A12000F05A
:1034F000C2F80021A62000F0BEF80021A82000F0AC
:10350000BAF800213F2000F0B6F80021C82000F0F2
:10351000B2F80021D32000F0AEF80021084600F0F8
:10352000AAF80021D52000F0A6F80021802000F0A4
:10353000A2F80021D82000F09EF80021052000F01C
:103540009AF80021D92000F096F80021F12000F02F
:1035500092F80021DA2000F08EF80021122000F00D
:103560008AF80021DB2000F086F80021302000F0EE
:1035700082F800218D2000F07EF80021142000F058
:103580007AF80021BDE81040AF2000F074B810B503
:103590000446B031C8B2002100F06DF8102040EAB6
:1035A0001410002100F067F804F00F00BDE810408F
:1035B000002100F060B800002DE9F041203A00241D
:1035C0000D468046D6B27F2803D900208D1C804648
:1035D000EDB2102B294610D0FFF7D9FF164906EBA4
:1035E000460001EB40050121285D00F044F8641C11
:1035F000E4B2062CF7D3BDE8F081FFF7C8FF0F4F08
:1036000004EB06100121385C00F035F8641CE4B2CC
:10361000082CF5D36D1CE9B24046FFF7B8FF002433
:1036200004EB061038440121007A00F024F8641CF1
:10363000E4B2082CF4D3DEE73E42000866440008FA
:103640002DE9F041984617460E46044600250DE048
:10365000434631462046FFF7AFFF0834E4B2782CEA
:1036600002D90024B61CF6B26D1CEDB27A5D002AB8
:10367000EED1BDE8F08109B100F010BA00F0FCB95C
:1036800070477047FEF75ABD30B593B028216846A1
:10369000FCF7CCFE14210AA8FCF7C8FE0025012087
:1036A0000F9510951195010412958DE82300049053
:1036B0004FF4E010CDE90810022407946846FEF7A5
:1036C00079FF08B172B6FEE70AA90F2081E8310040
:1036D0004FF48060CDE90D0502210AA8FEF78EFEA9
:1036E00008B172B6FEE74FF4004011900F940FA896
:1036F000FEF70EFE002801D072B6FEE713B030BD13
:1037000070470000F0B50268194B1A4C1A4D4FF083
:103710008047984205D0B84203D0A04201D0A842C9
:1037200003D122F070064A683243984205D0B8426D
:1037300003D0A04201D0A84203D122F44074CA6849
:1037400022434C6922F08002224302608A68C262EE
:103750000A688262984201D10969016301214161CD
:103760000169C90703D0016921F001010161F0BDC0
:10377000002C0140000400400008004010B584689F
:1037800042EA032224F47F440A432243826010BDAC
:10379000826822F070020A4342F00701816070479C
:1037A00010B5036A046A24F001040462846924F0F9
:1037B000F00444EA021423F00A020A43846102621C
:1037C00010BD10B5036A046A24F010040462846911
:1037D00023F0A00324F4704444EA023243EA0111C6
:1037E0008261016210BD10B5406A0021C185C184AB
:1037F000FFF7A2F910BD01680C3151E8002F22F447
:10380000907241E80023002BF5D10168143151E892
:10381000002F22F0010241E80023002BF5D1016BBB
:10382000012909D101680C3151E8002F22F0100262
:1038300041E80023002BF5D1202180F8421000211F
:103840000163704708B590F84210222901D0022088
:1038500008BD82684FF480539A4201D1016921B1B9
:10386000816A9A421BD04AB10AE00268816A5268B2
:10387000C2F308020A80816A891C08E0026972B1F9
:103880000268526802F07F020A70816A491C8162F4
:10389000C18D491E0904090CC18503D01BE00268D3
:1038A0005268F1E70168CA6822F02002CA60016824
:1038B000CA6822F48072CA6001684A6922F0010273
:1038C0004A61202180F8421000214163026B012AE5
:1038D00003D0FFF7E9FA002008BD016301680C314D
:1038E00051E8002F22F0100241E80023002BF5D10F
:1038F00001680A68D20602D50A6849680091818D7C
:10390000FFF719F9E7E7000070B5044600680169A0
:10391000E26821F44051114301612169A068084324
:10392000616908432168CA6841F20C639A43024303
:10393000CA6020684169A26921F440711143416164
:103940001E492068884202D1FEF7FEFD01E0FEF725
:10395000EBFD00EBC00101EB001260686421800008
:10396000B2FBF0F3B3FBF1F36FF018067343B2FB55
:10397000F0F5B2FBF0F605EB8305322303EB0515FA
:10398000B5FBF1F5B6FBF1F605F0F00505EB061514
:10399000B2FBF0F6B2FBF0F0B0FBF1F06FF0180202
:1039A000504306EB800003EB0010B0FBF1F0216800
:1039B00000F00F002844886070BD0000003801400E
:1039C00081628285C28500214164222180F84210F3
:1039D000016921B10168CA6842F48072CA60016855
:1039E0004A6942F001024A610068C16841F0200161
:1039F000C160002070472DE9F843984617460D46F0
:103A00000446089E24E0701C22D0FEF709FAA0EBC1
:103A10000800B0421AD8CEB12068C168490717D54E
:103A2000802D15D0402D13D00168C94309070FD44C
:103A300001680025406800902046FFF7DCFE082062
:103A4000606484F840500120BDE8F8830320FBE760
:103A50002068006835EA000004D00020B842D2D0C7
:103A60000020F1E70120F9E70148FFF767B80000FF
:103A7000E0000020FEE700001CB5002101918DF858
:103A800005004FF47A700090022301AA78210248C1
:103A9000FEF790FA1CBD0000440000201CB507A1F1
:103AA0000223096801918DF805004FF47A700090A7
:103AB00001AA78210248FEF77DFA1CBD40000000F3
:103AC00044000020490050EAC12018BF04204A0DDC
:103AD00018BF40F0010040F2FF72B2EB515F08BF27
:103AE00040F00200012808BF052070470907090EB1
:103AF000002804DB00F1E02080F80014704700F09B
:103B00000F0000F1E02080F8141D704730380A28BB
:103B100001D201207047002070470000A4B0FEF7DA
:103B200015FBFFF7B1FDFFF7DFFBFFF77BFCFFF7AE
:103B3000B3FBFFF725FCFFF743FCFDF77BFDFFF729
:103B4000B3FCFFF793FC0021102366A20846FFF7A1
:103B500077FD0C2367A202210020FFF771FD6A4E5A
:103B6000012211463046FEF756F900220221304666
:103B7000FEF751F9002021908DF88C008DF8880017
:103B80004FF47A7422AA23A921A8FDF7BFFCA0B99B
:103B9000219800F02FF99DF888208DE807005BA29E
:103BA0005EA103A8FCF722FB03A8FCF720FC82B26D
:103BB000234603A95F48FFF7A3F90C235EA2032164
:103BC0000020FFF73DFD219800F014F902460B4656
:103BD0005CA11CA8FCF70AFB0C231CAA03213020C3
:103BE000FFF72EFD0C2359A204210020FFF728FD2A
:103BF0009DF8882058A11CA8FCF7F8FA0C231CAAF1
:103C000004213020FFF71CFDFFF730FB054603467B
:103C10003EA252A103A8FCF7E9FA03A8FCF7E7FBD0
:103C200082B2234603A94348FFF76AF90C2350A246
:103C300005210020FFF704FD2A4647A11CA8FCF738
:103C4000D5FA0C231CAA05213020FFF7F9FC01212D
:103C50003046FEF7DBF8054603462CA247A103A831
:103C6000FCF7C4FA03A8FCF7C2FB82B2234603A9FF
:103C70003048FFF745F90C2345A206210020FFF745
:103C8000DFFC0DB144A200E044A20C230621302049
:103C9000FFF7D6FC02213046FEF7B8F8054603468A
:103CA0001AA23FA103A8FCF7A1FA03A8FCF79FFB07
:103CB00082B2234603A91F48FFF722F90C233DA235
:103CC00007210020FFF7BCFC0DB134A200E032A2B6
:103CD0000C2307213020FFF7B3FC2046FDF794FFAB
:103CE00050E70000536D6172742044657669636526
:103CF000000000002D2D2D2D2D2D2D2D2D2D2D2DA8
:103D00002D2D2D2D00000000000C014077656E6701
:103D10007975616E68616E670000000025732F730E
:103D2000656E736F722F54656D7020252E32665F3D
:103D300025750A00E000002054656D703A202020AF
:103D400000000000252E32660000000048756D69F5
:103D50003A202020000000002575000025732F73F5
:103D6000656E736F722F4C696768742025750A0041
:103D70004C696768743A20202020200025732F7337
:103D8000746174652F4C6564312025750A0000004C
:103D90004C4544313A0000004F4E00004F4646006B
:103DA00025732F73746174652F4C656432202575FB
:103DB0000A0000004C4544323A00000010B50029CA
:103DC0000AD00878002807D005487844FCF722FF7D
:103DD000002801D0002010BD0248784410BD00002A
:103DE0007E0D0000760D00000808A0F500114FEAD6
:103DF0003101704743004FEAD30C4FEA3C0C43407B
:103E00001FBF40070CF1605113F0FE4F70471CF0CC
:103E1000006F03D100200CF0004170470CF000430C
:103E200043EA507010B540EACC0000F046F900BFFC
:103E3000000000924FEA0001FFF7D6BF4FF00041AB
:103E40004FF00000A1F500217047000090EA010F3B
:103E500048BF81F0004100F18281421A3CBF801AC4
:103E600089184FEAD0524FF07F4C1CEA410FA2EB69
:103E7000D15318BF9CEA026F00F03B804FF0004C1A
:103E80004CEA00204CEA012121FA03FC10EB0C0C57
:103E90001ED202F1FF325FEA1C2040EBC25038BF55
:103EA00070471CF07F0F4FEA400C18BFBCF17F4FEA
:103EB00038BF7047C3F12003994008BF20F00100CC
:103EC000BCF17F4F38BF7047A0F1C04000F03BB954
:103ED0004FEA3C00000A40EBC25028BF1CF0FF0F25
:103EE0004FEA400CE6D018BFBCF17F4F38BF704797
:103EF000EAE79CEA026F05D010EA5C0F08BF00F009
:103F00000040704710B500F0D8F800BF64FBBE3E1B
:103F10004FF47F0C1CEAD0121EBF1CEAD11392EAA8
:103F20000C0F93EA0C0F00F0858090EA010F48BF58
:103F300042F4807240F4000C41F400002CF07F4108
:103F400020F07F4000B58142A2EB03020FF2081C73
:103F5000ACEB504EC0F100009EF800E04FEA4E0E70
:103F600000FB0EFC38BF49004FEA2C1C02F5FA0298
:103F70000CFB0EF34FEACE1E4FEA112C4FEAC12183
:103F80000EEB635E42EB22420EFB0CFC4FEA1C532D
:103F900000FB03114FEA112C4FEA01310EFB0CFC20
:103FA0004FEADC4C00FB0C11C14228BF09184CEB56
:103FB00003335DF804EB10EB410143EBC250B2F563
:103FC0007C0F38BF704729D512F0F00F1CBF00F1ED
:103FD000C04000F00040704700818283848586875E
:103FE00088898B8C8D8E8F919293959697999A9CB8
:103FF0009D9FA0A2A3A5A7A8AAACAEB0B2B3B5B727
:10400000B9BCBEC0C2C5C7C9CCCED1D4D7D9DCDFFC
:10401000E2E6E9ECF0F3F7FAFE0000004FEA400CAC
:104020000CF1807CBCF17E4F28BF7047B0F1C040DE
:1040300000F089B890EA010F0CEAD11348BF42F4AE
:104040008072624538BF634507D213F47F0F16D0E4
:1040500080EA010000F00040704710B500F02DF834
:10406000097EFC3E00F005B880EA010000F0004047
:10407000704780EA010000F0004000F064B812F4DC
:104080007F0F04BF0248704780EA010000F05BB870
:104090000000C07FB0FA80F310FA03F2C3F19D0371
:1040A0000AD0D90501EB1220530638BF704700F142
:1040B000010008BF20F0010070470EF1020E2EF043
:1040C000030E5EF8044B244204D44FEA4102B2F1DD
:1040D0007F4F11D84FEA4003B3F17F4F0CD80ED178
:1040E0004FEAD07CB2F17F4F0CEB4C0C0CF1020C80
:1040F00008BF4CEBD17C04E04FF0080C01E04FEA24
:10410000D17C0CEB4C0324FA03F404F00704B4F163
:10411000040C06D20EEB840CBDE810404CF0010CF0
:104120006047DFE80CF0070802024FF00040A0F5FE
:10413000800010BD0846420018BFD2F1807288BFCF
:1041400000F0004010BDFF2141EAD050C00570478B
:1041500090EA010F48BF81F000413FF57EAE421A60
:1041600004D882F00042A0EB020011444FEAD05282
:104170004FF07F4C1CEA410FA2EBD15318BF9CEAD1
:10418000026F4AD04FF0004C4CEA00204CEA01216B
:1041900021FA03FCB0EB0C0C0FD412F0FE0F36D05A
:1041A0005FEA4C001DD5001240EBC25038BF70478B
:1041B0001CF03F0F18BF70470BE0A2F101025FEA4D
:1041C0001C2040EBC25038BF70471CF07F0F18BF57
:1041D0007047C3F12003994014BF401E20F0010036
:1041E000704780084FEA122308BF7047B0FA80FC7E
:1041F000A2EB0C02CCF1280C60FA0CF093EA122F1F
:1042000004BF00EBC25070474FEAC3707047130AF7
:104210005FEADC1008BF7047F6E79CEA026F04D043
:1042200010EA5C0F08BF0020704710B5FFF745FF8C
:1042300040DFF63E81F000407047FCF753BA0000C3
:10424000000000000000002F000000000700070031
:1042500000147F147F1400242A7F2A12006264084D
:1042600013230036495522500000050300000000CA
:104270001C224100000041221C000014083E0814CA
:104280000008083E0808000000A0600000080808B8
:104290000808000060600000002010080402003ED2
:1042A0005149453E0000427F40000042615149466D
:1042B000002141454B31001814127F10002745455D
:1042C0004539003C4A49493000017109050300366F
:1042D0004949493600064949291E00003636000082
:1042E0000000563600000008142241000014141487
:1042F0001414000041221408000201510906003282
:104300004959513E007C1211127C007F49494936BF
:10431000003E41414122007F4141221C007F49492A
:104320004941007F09090901003E4149497A007F5E
:104330000808087F0000417F4100002040413F0104
:10434000007F08142241007F40404040007F020C63
:10435000027F007F0408107F003E4141413E007F04
:1043600009090906003E4151215E007F09192946CD
:104370000046494949310001017F0101003F4040A9
:10438000403F001F2040201F003F4038403F006357
:104390001408146300070870080700615149454379
:1043A00000007F41410000552A552A550000414137
:1043B0007F00000402010204004040404040000031
:1043C00001020400002054545478007F48444438CB
:1043D00000384444442000384444487F0038545452
:1043E000541800087E0901020018A4A4A47C007FD0
:1043F000080404780000447D4000004080847D0073
:10440000007F102844000000417F4000007C041819
:104410000478007C0804047800384444443800FCE4
:10442000242424180018242418FC007C0804040800
:1044300000485454542000043F444020003C404075
:10444000207C001C2040201C003C4030403C0044AC
:1044500028102844001CA0A0A07C004464544C44B4
:1044600014141414141400000000000000000000D4
:10447000000000000000000000F800000000000044
:1044800000333000000000100C06100C0600000085
:1044900000000000000040C07840C0784000043FA9
:1044A00004043F040400007088FC08300000001879
:1044B00020FF211E0000F008F000E018000000219D
:1044C0001C031E211E0000F00888700000001E2141
:1044D00023241927211010160E00000000000000F0
:1044E000000000000000000000E0180402000000CE
:1044F00000071820400000020418E00000000040FF
:10450000201807000000404080F080404000020278
:10451000010F01020200000000F000000000010194
:10452000011F01010100000000000000000080B038
:10453000700000000000000000000000000000010A
:104540000101010101010000000000000000003035
:1045500030000000000000000000806018040060CF
:1045600018060100000000E010080810E000000F2D
:10457000102020100F00001010F800000000002094
:10458000203F2020000000700808088870000030DC
:104590002824222130000030088888483000001884
:1045A000202020110E000000C02010F8000000079D
:1045B0000424243F240000F8088888080800001913
:1045C000212020110E0000E0108888180000000F44
:1045D000112020110E0000380808C838080000001B
:1045E000003F000000000070880808887000001C70
:1045F000222121221C0000E010080810E000000029
:10460000312222110F00000000C0C0000000000095
:1046100000303000000000000080000000000000BA
:1046200080600000000000008040201008000001B1
:104630000204081020004040404040404000040474
:10464000040404040400000810204080000000203E
:10465000100804020100007048080808F00000007B
:10466000003036010000C030C828E810E00007180C
:10467000272423140B000000C038E0000000203C79
:1046800023020227382008F8888888700000203F1D
:10469000202020110E00C030080808083800071834
:1046A00020202010080008F808080810E000203F2B
:1046B000202020100F0008F88888E8081000203F0C
:1046C00020202320180008F88888E8081000203FE0
:1046D000200003000000C030080808380000071858
:1046E0002020221E020008F808000008F808203FD9
:1046F000210101213F20000808F8080800000020DF
:10470000203F2020000000000808F8080800C080B2
:1047100080807F00000008F888C028180800203F2B
:1047200020012638200008F8080000000000203F83
:1047300020202020300008F8F800F8F80800203F7A
:10474000003F003F200008F830C00008F808203F74
:10475000200007183F00E01008080810E0000F10C4
:10476000202020100F0008F808080808F000203F5B
:10477000210101010000E01008080810E0000F18F6
:10478000242438504F0008F8888888887000203F1B
:104790002000030C3020007088080808380000381A
:1047A000202121221C00180808F808081800000021
:1047B000203F2000000008F808000008F808001F4B
:1047C000202020201F000878880000C8380800003A
:1047D00007380E010000F80800F80008F800033C54
:1047E0000700073C0300081868808068180820301C
:1047F0002C03032C30200838C800C83808000000FB
:10480000203F2000000010080808C83808002038A1
:10481000262120201800000000FE020202000000F5
:10482000007F40404000000C30C00000000000004D
:1048300000010638C00000020202FE000000004035
:1048400040407F000000000004020202040000005B
:104850000000000000000000000000000000808058
:104860008080808080800002020400000000000040
:10487000000000000000000080808080000000191F
:10488000242222223F2008F8008080000000003F00
:10489000112020110E000000008080800000000E1A
:1048A000112020201100000000808088F800000EF8
:1048B000112020103F200000808080800000001F19
:1048C000222222221300008080F08888881800208D
:1048D000203F202000000000808080808000006B4E
:1048E00094949493600008F8008080800000203F3A
:1048F000210000203F200080989800000000002048
:10490000203F20200000000000809898000000C098
:104910008080807F000008F8000080808000203FB9
:1049200024022D302000000808F8000000000020BC
:10493000203F202000008080808080808000203FF9
:1049400020003F20003F8080008080800000203FCA
:10495000210000203F200000808080800000001F98
:10496000202020201F00808000808000000080FF29
:10497000A12020110E000000008080808000000E29
:10498000112020A0FF808080800080808000202077
:104990003F212000010000008080808080000033E3
:1049A000242424241900008080E08080000000007E
:1049B000001F202000008080000000808000001F79
:1049C000202020103F208080800000808080000117
:1049D0000E300806010080800080008080800F304B
:1049E0000C030C300F0000808000808080000020CD
:1049F000312E0E31200080808000008080808081F8
:104A00008E70180601000080808080808000002168
:104A1000302C2221300000000000807C02020000C7
:104A20000000003F404000000000FF0000000000C8
:104A30000000FF0000000002027C80000000004037
:104A4000403F0000000000060101020204040000D3
:104A50000000000000000102020304050607080927
:104A60000A0B0C0D0E0F10100102020304050607BD
:104A700008090A0B0C0D0E0F1010000000000000BA
:104A800000000102030406070809000000000102FB
:104A90000304000002400000000000A0000000002D
:104AA00005400000000000C8000000000C400000AD
:104AB0000000409C00000000194000000020BCBE27
:104AC0000000000034400000BFC91B8E000000043D
:104AD000B5400000504BCFD06607E2CF0100000088
:104AE0006C4100003E8251AADFEEA73401000000B5
:104AF000D9420000DCB5A0E23A301F97FFFFFFFF6C
:104B0000B4450000FD25A0C8E9A3C14FFFFFFFFF8A
:104B1000FF3F00000000008000000000FF3F000099
:104B20000000008000000000644B0008000000202E
:104B30001400000028010008784B00081400002031
:104B400074070000440100081C000000430000003E
:104B5000F8FFFFFF0C0000000E0000000F00000037
:104B60002E00000000000000010000001000000006
:084B70000000000000127A00B1
:04000005080000ED02
:00000001FF
